:10094900E4FDFCC3ED9FEC9E5015E4FBFA0BBB00E4
:0F095900010AEB647A4A70F50DBD00010C80E4D1
:01096800226C
:0A097500C0F9A4B0999282F88090B6
:10085500E4F508F509E4F50AF50BE4F50CF50DAF3B
:1008650009AE081208A7AF0BAE0A1208F9050DE587
:100875000D7002050CC39464E50C940040E1050B72
:10088500E50B7002050AC3943CE50A940040CB05CC
:1008950009E50970020508C3943CE508940040B5D4
:0208A50080AE23
:1008F9008E0E8F0F7C007D0A12080074752DF5820B
:1009090074093CF583E493F5A0D2B37F027E00120B
:100919000949C2B3AE0EAF0F7C007D0A1208007CF4
:10092900007D0A12080074752DF58274093CF5835F
:10093900E493F5A0D2B27F027E00120949C2B22225
:1008A7008E0E8F0F7C007D0A12080074752DF5825D
:1008B70074093CF583E4932480F5A0D2B17F027ECE
:1008C70000120949C2B1AE0EAF0F7C007D0A1208B3
:1008D700007C007D0A12080074752DF58274093CAE
:1008E700F583E493F5A0D2B07F027E00120949C2D6
:0208F700B0222D
:0300000002096989
:0C096900787FE4F6D8FD75810F02085578
:10080000BC000BBE0029EF8DF084FFADF022E4CCDC
:10081000F875F008EF2FFFEE33FEEC33FCEE9DECA5
:10082000984005FCEE9DFE0FD5F0E9E4CEFD22EDEB
:10083000F8F5F0EE8420D21CFEADF075F008EF2F35
:10084000FFED33FD4007985006D5F0F222C398FD26
:050850000FD5F0EA22C3
:00000001FF
