:10092900E4FDFCC3ED9FEC9E5015E4FBFA0BBB0004
:0F093900010AEB647A4A70F50DBD00010C80E4F1
:01094800228C
:0A095500C0F9A4B0999282F88090D6
:0508F400E4F508F50920
:1008F900E4F50AF50BAF09AE08120800050BE50B84
:0D0909007002050AC3940CE50A940040E852
:100916000509E50970020508C3940FE50894274008
:03092600D280CBB1
:100800008E0C8F0D7C037DE812089F74552FF582A6
:1008100074093EF583E493F5A0D2B07F027E001206
:100820000929C2B0AE0CAF0D7C007D6412089F7C1C
:10083000007D0A12089F74552DF58274093CF583DA
:10084000E493F5A0D2B17F027E00120929C2B1AEB5
:100850000CAF0D7C007D0A12089F7C007D0A1208F7
:100860009F74552DF58274093CF583E493F5A0D26D
:10087000B27F027E00120929C2B2AE0CAF0D7C001D
:100880007D0A12089F74552DF58274093CF583E4A6
:0F08900093F5A0D2B37F027E00120929C2B322D2
:03000000020949A9
:0C094900787FE4F6D8FD75810D0208F4FB
:10089F00BC000BBE0029EF8DF084FFADF022E4CC3D
:1008AF00F875F008EF2FFFEE33FEEC33FCEE9DEC06
:1008BF00984005FCEE9DFE0FD5F0E9E4CEFD22ED4C
:1008CF00F8F5F0EE8420D21CFEADF075F008EF2F96
:1008DF00FFED33FD4007985006D5F0F222C398FD87
:0508EF000FD5F0EA2224
:00000001FF
